:020000040000FA
:100000000C9462000C948A000C948A000C948A0070
:100010000C948A000C948A000C948A000C948A0038
:100020000C948A000C948A000C948A000C948A0028
:100030000C948A000C948A000C948A000C948A0018
:100040000C945B060C948A000C9429060C9403060D
:100050000C948A000C948A000C948A000C948A00F8
:100060000C948A000C948A000000000024002700F1
:100070002A0000000000250028002B0000000008D6
:10008000000201000003040700000000000000005F
:1000900000000000230026002900040404040404D6
:1000A0000404020202020202030303030303010227
:1000B00004081020408001020408102001020408F6
:1000C0001020A50611241FBECFEFD8E0DEBFCDBFA4
:1000D00011E0A0E0B1E0E2EDF6E102C005900D9282
:1000E000A634B107D9F722E0A6E4B1E001C01D9221
:1000F000A132B207E1F710E0C2E6D0E004C02197D8
:10010000FE010E94610BC136D107C9F70E940E079C
:100110000C94670B0C940000CF92DF92EF92FF9249
:10012000CF93DF93B0911502A0E08111AB2F8091A6
:10013000160290E0880F991FAC0140575F4FC090A6
:100140001B02D0901C02E0901D02F0901E0230E0D5
:1001500020E0FA01C591D491E881B90190E080E0F6
:10016000EB23EA130AC02F5F3F4F6C157D058E0508
:100170009F0578F36FEF7FEFCB01DF91CF91FF9079
:10018000EF90DF90CF900895FC01538D448D252F83
:1001900030E0842F90E0821B930B541710F0CF9621
:1001A000089501970895FC01918D828D981761F053
:1001B000A28DAE0FBF2FB11D5D968C91928D9F5F6A
:1001C0009F73928F90E008958FEF9FEF0895FC0149
:1001D000918D828D981731F0828DE80FF11D858DFC
:1001E00090E008958FEF9FEF0895FC01918D228D8F
:1001F000892F90E0805C9F4F821B91098F73992714
:100200000895FC01A48DA80FB92FB11DA35ABF4FAB
:100210002C91848D90E001968F739927848FA68905
:10022000B7892C93A089B1898C91837080648C9359
:10023000938D848D981306C00288F389E02D808108
:100240008F7D80830895EF92FF920F931F93CF933A
:10025000DF93EC0181E0888F9B8D8C8D98131AC001
:10026000E889F989808185FF15C09FB7F894EE89E8
:10027000FF896083E889F989808183708064808345
:100280009FBF81E090E0DF91CF911F910F91FF9090
:10029000EF900895F62E0B8D10E00F5F1F4F0F7338
:1002A0001127E02E8C8D8E110CC00FB607FCFACFF3
:1002B000E889F989808185FFF5CFCE010E9401018F
:1002C000F1CFEB8DEC0FFD2FF11DE35AFF4FF082C4
:1002D0009FB7F8940B8FEA89FB8980818062CFCF2A
:1002E000CF93DF93EC01888D8823B9F0AA89BB896D
:1002F000E889F9898C9185FD03C0808186FD0DC058
:100300000FB607FCF7CF8C9185FFF2CF808185FF78
:10031000EDCFCE010E940101E9CFDF91CF91089589
:1003200089E591E00E94F50021E0892B09F420E0A5
:10033000822F089580E090E0892B29F00E9490019F
:1003400081110C9400000895AF92BF92CF92DF927A
:10035000EF92FF920F931F93CF93DF936C017B017A
:100360008B01040F151FEB015E01AE18BF08C0170B
:10037000D10759F06991D601ED91FC910190F0817E
:10038000E02DC6010995892B79F7C501DF91CF9141
:100390001F910F91FF90EF90DF90CF90BF90AF90A3
:1003A0000895833081F028F4813099F08230A9F0EB
:1003B00008958730A9F08830C9F08430B1F4809175
:1003C00080008F7D03C0809180008F7780938000B4
:1003D000089584B58F7784BD089584B58F7DFBCF54
:1003E0008091B0008F778093B00008958091B00025
:1003F0008F7DF9CFCF93DF93282F30E0F901E458B8
:10040000FF4F8491F901E255FF4FD491F901E6566F
:10041000FF4FC491CC23A1F081110E94D101EC2F98
:10042000F0E0EE0FFF1FE057FF4FA591B491EC9164
:10043000ED2381E090E009F480E0DF91CF91089511
:1004400080E090E0FACF1F93CF93DF93282F30E026
:10045000F901E458FF4F8491F901E255FF4FD4911F
:10046000F901E656FF4FC491CC23A9F0162F811154
:100470000E94D101EC2FF0E0EE0FFF1FEE58FF4F6E
:10048000A591B4918FB7F894EC91111108C0D09553
:10049000DE23DC938FBFDF91CF911F910895DE2B78
:1004A000F8CFCF93DF9390E0FC01E255FF4F24910A
:1004B00086569F4FFC0184918823C9F090E0880FF5
:1004C000991FFC01E859FF4FA591B491FC01EE582A
:1004D000FF4FC591D49161110DC09FB7F8948C91D5
:1004E000209582238C938881282328839FBFDF91C6
:1004F000CF910895623051F49FB7F8943C91822FC8
:10050000809583238C93E8812E2BEFCF8FB7F894BF
:10051000EC912E2B2C938FBFEACF3FB7F8948091AC
:10052000470190914801A0914901B0914A0126B537
:10053000A89B05C02F3F19F00196A11DB11D3FBF1B
:10054000BA2FA92F982F8827BC01CD01620F711DEA
:10055000811D911D42E0660F771F881F991F4A95E4
:10056000D1F708958F929F92AF92BF92CF92DF9270
:10057000EF92FF924B015C010E948D026B017C01A6
:100580000E948D026C197D098E099F09683E734097
:1005900081059105A8F321E0821A9108A108B1080C
:1005A00088EEC80E83E0D81EE11CF11C8114910472
:1005B000A104B10429F7FF90EF90DF90CF90BF9096
:1005C000AF909F908F900895CF92DF92EF92FF921D
:1005D0000F931F93CF93DF93CDB7DEB7C054D140B5
:1005E0000FB6F894DEBF0FBECDBF2FB7F894809141
:1005F000550190915601A0915701B09158012FBF1C
:1006000040911702509118026091190270911A02DC
:100610008C019D01041B150B260B370BB901A8019A
:10062000403D57406105710590F480911F02C05C08
:10063000DE4F0FB6F894DEBF0FBECDBFDF91CF9176
:100640001F910F91FF90EF90DF90CF9008958093CE
:10065000170290931802A0931902B0931A021092F5
:100660001202109211021092100210920F021092B8
:100670000E0262E0809113020E94510261E070E07C
:1006800080E090E00E94B20261E0809113020E943B
:10069000510260E0809113020E94230280911402B3
:1006A0008551823020F58BE291E10197F1F762E00C
:1006B000809113020E9451028091200290E08230CA
:1006C000910538F0880F991F880F991F059701979A
:1006D000F1F7F89480E00E948C006F3F7F4F8F4FBE
:1006E0009F4F61F410921F02789480E0A0CF64E1E4
:1006F00070E080E090E00E94B202D9CF81E00E94D9
:100700008C006F3F7F4F8F4F9F4F61F38E010F5FC4
:100710001F4F6E018FEBC81A8EEFD80A780180E068
:100720000E948C00F701608371838283938381E050
:100730000E948C00F7016483758386839783F8E0B9
:10074000EF0EF11CEC14FD0451F7789430E020E03A
:10075000F801C080D180E280F380448155816681B8
:100760007781FFEFCF16DF06EF06FF0631F04F3F30
:100770008FEF58076807780719F410921F02B5CF5A
:10078000F90183E0F595E7958A95E1F7E25FFD4F82
:100790008081880FC416D506E606F70610F180831F
:1007A0002F5F3F4F085F1F4F2832310589F6409178
:1007B000120220910E0280910F02280F3327331F5F
:1007C00080911002280F311D80911102820F932F0A
:1007D000911D99274817190681F681E080931F0221
:1007E00026CF8160DCCF089590E080E008950F93DC
:1007F0001F93CF93C62F0E94FA018C018C2F0E9469
:10080000FA01012B91F461E0009719F0019769F466
:1008100060E08C2F0E94230264EF71E080E090E0A2
:10082000CF911F910F910C94B202CF911F910F9114
:100830000895CF93C82F0E94FA01019759F460E000
:100840008C2F0E94230264EF71E080E090E0CF9152
:100850000C94B202CF910895CF93C82F0E94FA0151
:10086000892B59F461E08C2F0E94230264EF71E020
:1008700080E090E0CF910C94B202CF910895FC01FA
:1008800001900020E9F73197AF01481B590BBC01DB
:1008900086EF91E00C94A4018F929F92AF92BF9249
:1008A0000F931F93CF93DF93CDB7DEB7A1970FB60A
:1008B000F894DEBF0FBECDBF19A2423008F44AE063
:1008C0008E010F5D1F4F842E912CB12CA12CA50100
:1008D00094010E943F0BE62FB901CA01EA30F4F4FB
:1008E000E05DD801EE938D01232B242B252B79F786
:1008F00090E080E0109719F0CD010E943F04A1968E
:100900000FB6F894DEBF0FBECDBFDF91CF911F9120
:100910000F91BF90AF909F908F900895E95CE1CFC9
:10092000CF93DF93EC0160E08E810E94230261E0AF
:100930008E810E94230260E08E810E9423028BE858
:1009400091E00197F1F7DF91CF910895CF92DF9277
:10095000EF92FF920F931F93CF93DF936C017C0173
:1009600087E0E80EF11CD0E0C0E0062F10E0B801EF
:100970000C2E02C0759567950A94E2F76170F70135
:1009800081917F010E9423022196C430D10579F71D
:10099000C601DF91CF911F910F91FF90EF90DF90F3
:1009A000CF900C949004CF92DF92EF92FF920F932E
:1009B0001F93CF93DF93EC01F62E642F8C810E945E
:1009C00023028D818F3F19F060E00E9423020F2DDA
:1009D00010E08F8584FF25C06E0187E0C80ED11C12
:1009E000F12CE12CB8010E2C02C0759567950A9484
:1009F000E2F76170F60181916F010E942302FFEF1F
:100A0000EF1AFF0A88E0E816F10461F7CE01DF91E2
:100A1000CF911F910F91FF90EF90DF90CF900C94AA
:100A20009004B80184E0759567958A95E1F7CE0149
:100A30000E94A6046F2DCE01DF91CF911F910F91DF
:100A4000FF90EF90DF90CF900C94A60440E0682FC9
:100A500086EF91E00C94D304CF93DF93823029F496
:100A6000909105029860909305028093090210927C
:100A70000A0280E480930B0280E180930C0280E5FF
:100A800080930D0261E08091FA010E9451028091F1
:100A9000FB018F3F19F061E00E94510261E08091FB
:100AA000FC010E945102C6EFD1E09E01265F314059
:100AB0008091050284FD0BC084E090E02196281708
:100AC000390744F461E08E810E945102EECF88E044
:100AD00090E0F4CF8BE39DE00197F1F760E0809127
:100AE000FA010E94230260E08091FC010E9423022F
:100AF0008091FB018F3F19F060E00E9423028091FA
:100B0000050284FD39C063E086EF91E00E94A604EF
:100B1000CBE4D6E4CE010197F1F763E086EF91E0F4
:100B20000E94A6042197F1F763E086EF91E00E940E
:100B3000A60483E592E00197F1F762E086EF91E089
:100B40000E94A6048091050280620E94260584E02E
:100B5000809306028CE00E94260581E00E94260513
:100B60008BE39FE10197F1F782E08093070286E033
:100B7000DF91CF910C94260580620E9426058BE4BC
:100B800096E40197F1F78091050280620E942605A4
:100B900083E592E00197F1F78091050280620E945F
:100BA0002605D0CF90910902691710F06FEF690FF9
:100BB000E62FF0E0EA50FE4F9489890F80680C948C
:100BC000260541E00E94D30481E090E00895CF9291
:100BD000DF92EF92FF926B017C0141E06DE286EFC4
:100BE00091E00E94D30466277727CB016C197D0919
:100BF0008E099F094AE00E944C040196FF90EF90F5
:100C0000DF90CF9008951F920F920FB60F9211248C
:100C10002F933F934F935F936F937F938F939F9304
:100C2000AF93BF93EF93FF9389E591E00E94010199
:100C3000FF91EF91BF91AF919F918F917F916F91B4
:100C40005F914F913F912F910F900FBE0F901F908A
:100C500018951F920F920FB60F9211242F938F9316
:100C60009F93EF93FF93E0916901F0916A01808176
:100C7000E0916F01F091700182FD1BC09081809125
:100C800072018F5F8F7320917301821741F0E091A1
:100C90007201F0E0E75AFE4F958F80937201FF9149
:100CA000EF919F918F912F910F900FBE0F901F90FA
:100CB00018958081F4CF1F920F920FB60F921124D6
:100CC0002F933F938F939F93AF93BF938091550141
:100CD00090915601A0915701B09158013091460171
:100CE00023E0230F2D3758F50196A11DB11D209348
:100CF00046018093550190935601A0935701B093FC
:100D000058018091470190914801A0914901B0910B
:100D10004A010196A11DB11D80934701909348019E
:100D2000A0934901B0934A01BF91AF919F918F91D8
:100D30003F912F910F900FBE0F901F90189526E8AE
:100D4000230F0296A11DB11DD2CFE9E5F1E0138278
:100D5000128288EE93E0A0E0B0E084839583A683BE
:100D6000B7838CE091E09183808385EC90E0958758
:100D7000848784EC90E09787868780EC90E0918B65
:100D8000808B81EC90E0938B828B82EC90E0958B52
:100D9000848B86EC90E0978B868B118E128E138E4F
:100DA000148EAEE0B2E083E015968C9315978BE03D
:100DB00016968C931697E1EBF0E0E4911796EC937E
:100DC0001797EDE9F0E0E4911896EC93189740E856
:100DD0005EE360E070E01D964D935D936D937C93B0
:100DE0005097E6EFF1E0138212822EE131E0318379
:100DF00020839DE094839FEF95839CE09683878377
:100E00008AE0808789E0818788E08287138614865C
:100E100015861686178681E00C942C05789484B587
:100E2000826084BD84B5816084BD85B5826085BDE6
:100E300085B5816085BD80916E00816080936E0074
:100E40001092810080918100826080938100809166
:100E50008100816080938100809180008160809317
:100E600080008091B10084608093B1008091B000D7
:100E700081608093B00080917A00846080937A00D2
:100E800080917A00826080937A0080917A008160FC
:100E900080937A0080917A00806880937A00109223
:100EA000C10060E086E00E94510261E084E00E949F
:100EB000510260E085E00E94510261E082E00E9400
:100EC000510260E087E00E94510282E00E942C05FE
:100ED00060E080E00E94D20586E291E00E943F043B
:100EE00060E08CE00E94D2058DE291E00E943F0418
:100EF00061E080E00E94D20582E391E00E943F041D
:100F000088E40E942605C0E0D1E008E011E0699184
:100F100086EF91E00E94E1050C171D07C1F762E022
:100F2000809113020E9451022FB7F89480915501CD
:100F300090915601A0915701B09158012FBF805D4B
:100F40009740A109B1098093170290931802A093CA
:100F50001902B0931A0287E380932002C0E0D0E028
:100F600001E010E00E94E402882351F08091140215
:100F70008B3030F08D3058F08551823008F440C00D
:100F8000812C912C20ECA22E2FE7B22E1EC0609156
:100F90000F0270E090E080E00E94180A2DEC3CEC1B
:100FA0004CEC5DE30E94CD0A6B017C0160910E0266
:100FB00070E090E080E00E94180A9B01AC01C7013C
:100FC000B6010E946F094B015C0180924B01909227
:100FD0004C01A0924D01B0924E010E94E402882380
:100FE00041F0809114028C3009F407C1D8F48B30A1
:100FF00091F1C12CD12C80ECE82E8FE7F82E55C052
:1010000060910E0270910F0276276727762790E095
:1010100080E00E94160A2DEC3CEC4CEC5DE30E9453
:10102000CD0AD1CF8551823020F770901002672D04
:1010300070E0762F662766277F7780911102682BF4
:1010400090E080E00E94160A2DEC3CEC4CEC5DE355
:101050000E94CD0AEEC06091100270E090E080E046
:101060000E94160A6B017C017090110277FE0AC083
:10107000AC019B0160E070E080E89FEB0E946E098C
:101080006B017C01672D6F7070E090E080E00E9442
:10109000180A2DEC3CEC4CEC5DE30E94CD0AA70154
:1010A00096010E946F096B017C01C0924F01D092A2
:1010B0005001E0925101F0925201A7019601C7013F
:1010C000B6010E943A0B811153C0A5019401C501DC
:1010D000B4010E943A0B81114BC060E086E00E948F
:1010E000D20520E030E0A901C701B6010E94C80A7C
:1010F00020E030E040E05FE387FDA4C0C701B60117
:101100000E946F090E94E00997FFA1C00E94E705B5
:1011100061E086EF91E00E94E10589E391E00E94A1
:101120003F0461E086E00E94D205C0904B01D09060
:101130004C01E0904D01F0904E0120E030E0A9011B
:10114000C701B6010E94C80A20E030E040E05FE33A
:1011500087FD81C0C701B6010E946F090E94E009A6
:1011600097FF7EC00E94E7058BE391E00E943F0459
:1011700061E08CE00E94D20580915301909154016E
:10118000019709F071C08EE391E00E943F0487E06F
:101190000E94FA01892B89F48091530190915401A6
:1011A000009709F064C0109354010093530164EF59
:1011B00071E080E090E00E94B20280915301909132
:1011C0005401019709F07DC0C0904F01D0905001AB
:1011D000E0905101F090520120E030E048E152E40B
:1011E000C701B6010E94C80A87FD49C082E090E0AD
:1011F0000E942C0484E090E052C070901002672D91
:1012000070E090E080E00E94160A6B017C01609122
:1012100011026F7070E090E080E00E94180A2DECDF
:101220003CEC4CEC5DE30E94CD0AA70196010E94C4
:101230006F096B017C0177FE38CFF7FAF094F7F86D
:10124000F09433CFC701B6010E946E095BCF4AE02C
:101250000E944C045DCFC701B6010E946E097ECF8B
:101260004AE00E944C0480CF82E491E08ECF019747
:1012700009F0A3CF109254011092530198CF20E0AF
:1012800030E040EA51E4C701B6010E94DB091816BC
:101290009CF084E090E00E942C0482E090E00E94A8
:1012A0001904209709F45ECE0E949001882309F466
:1012B00059CE0E94000056CE82E090E00E941904B0
:1012C00099CF64E070E086E090E00E94F70362E06E
:1012D00070E085E090E00E94F703E3CF5058BB2711
:1012E000AA270E9486090C948E0A0E94800A38F070
:1012F0000E94870A20F039F49F3F19F426F40C94D9
:101300007D0A0EF4E095E7FB0C94770AE92F0E9422
:101310009F0A58F3BA17620773078407950720F0EE
:1013200079F4A6F50C94C10A0EF4E0950B2EBA2FB1
:10133000A02D0B01B90190010C01CA01A0011124DB
:10134000FF27591B99F0593F50F4503E68F11A1687
:10135000F040A22F232F342F4427585FF3CF469518
:1013600037952795A795F0405395C9F77EF41F163A
:10137000BA0B620B730B840BBAF09150A1F0FF0F04
:10138000BB1F661F771F881FC2F70EC0BA0F621FF0
:10139000731F841F48F4879577956795B795F795E0
:1013A0009E3F08F0B0CF9395880F08F09927EE0F75
:1013B0009795879508950E94530A08F481E008954F
:1013C0000E94E7096894B1110C94C20A08950E9422
:1013D000A70A88F09F5798F0B92F9927B751B0F016
:1013E000E1F0660F771F881F991F1AF0BA95C9F7A9
:1013F00014C0B13091F00E94C10AB1E008950C947C
:10140000C10A672F782F8827B85F39F0B93FCCF32E
:10141000869577956795B395D9F73EF49095809525
:10142000709561957F4F8F4F9F4F0895E89409C045
:1014300097FB3EF490958095709561957F4F8F4F07
:101440009F4F9923A9F0F92F96E9BB279395F6951D
:10145000879577956795B795F111F8CFFAF4BB0F9B
:1014600011F460FF1BC06F5F7F4F8F4F9F4F16C0FF
:10147000882311F096E911C0772321F09EE8872F89
:10148000762F05C0662371F096E8862F70E060E045
:101490002AF09A95660F771F881FDAF7880F9695BE
:1014A000879597F90895990F0008550FAA0BE0E862
:1014B000FEEF16161706E807F907C0F01216130616
:1014C000E407F50798F0621B730B840B950B39F456
:1014D0000A2661F0232B242B252B21F408950A26BC
:1014E00009F4A140A6958FEF811D811D089597F9FC
:1014F0009F6780E870E060E008959FEF80EC0895BA
:1015000000240A94161617061806090608950024E2
:101510000A9412161306140605060895092E03945C
:10152000000C11F4882352F0BB0F40F4BF2B11F4D0
:1015300060FF04C06F5F7F4F8F4F9F4F089557FD2F
:101540009058440F551F59F05F3F71F04795880F31
:1015500097FB991F61F09F3F79F0879508951216C8
:1015600013061406551FF2CF4695F1DF08C0161674
:1015700017061806991FF1CF869571056105089425
:101580000895E894BB2766277727CB0197F908953C
:101590000E94530A08F48FEF08950E94E00A0C9409
:1015A0008E0A0E94800A38F00E94870A20F0952354
:1015B00011F00C94770A0C947D0A11240C94C20A41
:1015C0000E949F0A70F3959FC1F3950F50E0551F3D
:1015D000629FF001729FBB27F00DB11D639FAA2788
:1015E000F00DB11DAA1F649F6627B00DA11D661FD7
:1015F000829F2227B00DA11D621F739FB00DA11DF8
:10160000621F839FA00D611D221F749F3327A00DB1
:10161000611D231F849F600D211D822F762F6A2F4D
:1016200011249F5750409AF0F1F088234AF0EE0FB2
:10163000FF1FBB1F661F771F881F91505040A9F7DF
:101640009E3F510580F00C94770A0C94C20A5F3FCC
:10165000E4F3983ED4F3869577956795B795F7951B
:10166000E7959F5FC1F7FE2B880F911D9695879593
:1016700097F908950E94530A880B990B0895A1E2E7
:101680001A2EAA1BBB1BFD010DC0AA1FBB1FEE1FFC
:10169000FF1FA217B307E407F50720F0A21BB30B47
:1016A000E40BF50B661F771F881F991F1A9469F7C3
:1016B00060957095809590959B01AC01BD01CF011F
:1016C0000895EE0FFF1F0590F491E02D0994F89412
:1016D000FFCF0E0A0E0000000000000000002301F2
:1016E000A401C4007001F500D300E7000000000071
:1016F000E105A401F403F30354454D503A200041A1
:1017000055544F0048554D493A20004300202500CC
:081710004F4E20004F46460039
:107E0000112484B714BE81FFF0D085E080938100F7
:107E100082E08093C00088E18093C10086E0809377
:107E2000C20080E18093C4008EE0C9D0259A86E02C
:107E300020E33CEF91E0309385002093840096BBD3
:107E4000B09BFECF1D9AA8958150A9F7CC24DD24C4
:107E500088248394B5E0AB2EA1E19A2EF3E0BF2EE7
:107E6000A2D0813461F49FD0082FAFD0023811F036
:107E7000013811F484E001C083E08DD089C08234E0
:107E800011F484E103C0853419F485E0A6D080C0E4
:107E9000853579F488D0E82EFF2485D0082F10E0AE
:107EA000102F00270E291F29000F111F8ED06801E7
:107EB0006FC0863521F484E090D080E0DECF843638
:107EC00009F040C070D06FD0082F6DD080E0C81688
:107ED00080E7D80618F4F601B7BEE895C0E0D1E017
:107EE00062D089930C17E1F7F0E0CF16F0E7DF06D8
:107EF00018F0F601B7BEE89568D007B600FCFDCFD4
:107F0000A601A0E0B1E02C9130E011968C91119780
:107F100090E0982F8827822B932B1296FA010C0160
:107F200087BEE89511244E5F5F4FF1E0A038BF0790
:107F300051F7F601A7BEE89507B600FCFDCF97BE46
:107F4000E89526C08437B1F42ED02DD0F82E2BD052
:107F50003CD0F601EF2C8F010F5F1F4F84911BD097
:107F6000EA94F801C1F70894C11CD11CFA94CF0C13
:107F7000D11C0EC0853739F428D08EE10CD085E9AC
:107F80000AD08FE07ACF813511F488E018D01DD067
:107F900080E101D065CF982F8091C00085FFFCCF94
:107FA0009093C60008958091C00087FFFCCF809118
:107FB000C00084FD01C0A8958091C6000895E0E648
:107FC000F0E098E1908380830895EDDF803219F02E
:107FD00088E0F5DFFFCF84E1DECF1F93182FE3DFCA
:107FE0001150E9F7F2DF1F91089580E0E8DFEE27F6
:047FF000FF270994CA
:027FFE00040479
:00000001FF
